:020000040800F2
:1000000028080020310200086D0200086F02000875
:100010007102000873020008750200080000000069
:10002000000000000000000000000000770200084F
:1000300079020008000000007B0200087D02000831
:100040007F0200087F0200087F0200087F0200088C
:100050007F0200087F0200087F0200087F0200087C
:100060007F0200087F0200087F0200087F0200086C
:100070007F0200087F0200087F0200087F0200085C
:100080007F0200087F0200087F0200087F0200084C
:100090007F0200087F0200087F0200087F0200083C
:1000A0007F0200087F0200087F0200087F0200082C
:1000B0007F0200087F0200087F0200087F0200081C
:1000C0007F0200087F0200087F0200087F0200080C
:1000D0007F0200087F0200087F0200087F020008FC
:1000E0007F0200087F0200087F0200087F020008EC
:1000F0007F0200087F0200087F0200087F020008DC
:100100007F0200087F0200087F0200087F020008CB
:100110007F0200087F0200087F0200087F020008BB
:100120007F0200087F0200087F0200087F020008AB
:100130007F0200087F0200087F0200087F0200089B
:100140007F0200087F0200087F0200087F0200088B
:100150007F0200087F0200087F0200087F0200087B
:100160007F0200087F0200087F0200087F0200086B
:100170007F0200087F0200087F02000800000000E4
:100180007F0200087F02000800F002F800F041F84A
:100190000AA090E8000C82448344AAF10107DA45E2
:1001A00001D100F036F8AFF2090EBAE80F0013F0F3
:1001B000010F18BFFB1A43F001031847C82C0000B9
:1001C000E82C0000103A24BF78C878C1FAD852074A
:1001D00024BF30C830C144BF04680C6070470000C1
:1001E0000023002400250026103A28BF78C1FBD840
:1001F000520728BF30C148BF0B607047642900F028
:10020000A380002070471FB502F066FC1FBD10B52B
:1002100010BD00F089F91146FFF7F5FF01F080FBF2
:1002200000F0A7F903B4FFF7F2FF03BC00F0AAF94E
:1002300016481749174B99423CBF50F8042B41F818
:10024000042BF8D314494FF000028B4238BF43F817
:10025000042BFAD3DFF84400016841F47001016017
:10026000BFF34F8FBFF36F8F0D480047FEE7FEE7E8
:10027000FEE7FEE7FEE7FEE7FEE7FEE7FEE7FEE756
:1002800008480949094A0A4B70470000A42E000893
:1002900000000020140000202808002088ED00E065
:1002A00089010008280200202808002028040020D6
:1002B000280400200FB41CB5084B06AA7B446946ED
:1002C0000090059800F00FF904460020694600F000
:1002D0001DF920461CBC5DF814FB00004D02000017
:1002E0002DE9F0410E460446002020622046E168D8
:1002F000884730B3252805D0D4E901219047206AEA
:10030000401CF2E7E168204600278847050018D026
:10031000A5F14100192802D820354FF40067324674
:10032000294620462760FFF769FF40B1012804D025
:10033000F61D26F007060836D8E7361DD6E728460C
:10034000DAE7206ABDE8F0812DE9F0410646002495
:1003500010687529314616A510D0AFF3008000282B
:1003600002DA404213A507E031688A0701D512A5D9
:1003700002E0490704D511A5012401E0AFF3008094
:1003800000210A2206F1240709E0B0FBF2FCB0FBD1
:10039000F2F302FB1C00303078541846491C002848
:1003A000F3D123462A463046BDE8F04100F03DB87F
:1003B000000000002D0000002B00000020000000C5
:1003C0004FF0000200B5134694469646203922BFEE
:1003D000A0E80C50A0E80C50B1F12001BFF4F7AF39
:1003E000090728BFA0E80C5048BF0CC05DF804EB1B
:1003F000890028BF40F8042B08BF704748BF20F889
:10040000022B11F0804F18BF00F8012B7047704786
:100410007047704710B500F07FF8006810BD10B548
:10042000044600F079F8046010BD2DE9F0470D4650
:1004300099469246044600F124080168880604D5CE
:10044000E06921F01001216000E00120A84201DDF7
:10045000471B00E00027A1697A1902EB0900081A7E
:10046000A0612078C00602D42046AFF300800026A9
:1004700008E0D4E901211AF806009047206A401CE0
:10048000761C20624E45F4DB2078C0060AD5204653
:10049000AFF3008006E0D4E9012130209047206AC4
:1004A000401C2062381EA7F10107F4DC07E0D4E904
:1004B000012118F805009047206A401C2062281E80
:1004C000A5F10105F3DC2046AFF30080207800069B
:1004D00002D50220BDE8F0870120FBE701694A1C34
:1004E00002610878704700B58FB0CDE90131002175
:1004F000059105497944CDE9031011466846FFF797
:10050000EFFE0FB000BD0000E5FFFFFF0A6802F834
:10051000010B0A607047000000487047C8010020C6
:1005200000487047C80100207546FFF7F9FFAE4646
:1005300005006946534620F00700854618B020B5EF
:10054000FFF79EFEBDE820404FF000064FF0000789
:100550004FF000084FF0000B21F00701AC46ACE86B
:10056000C009ACE8C009ACE8C009ACE8C0098D46D8
:10057000704710B50446AFF300802046BDE8104038
:10058000FFF750BE01491820ABBEFEE7260002006F
:10059000704700000348406920F4807001494861B9
:1005A00070470000001000480348406940F4807024
:1005B0000149486170470000001000481C48C06CA9
:1005C00040F002001A49C8640846C06C40F01000B0
:1005D000C8641848006820F02000164908600846E2
:1005E000006840F0100008601348006820F40030F4
:1005F000114908600846006840F4803008600D48E2
:100600000830006820F020000A49083108600846D8
:10061000006820F0100008600748806820F400306F
:10062000054988600846806820F4803088607047FB
:100630000010024000040048001000480348006811
:1006400020F00400014908607047000014040048CD
:100650000348006840F0040001490860704700004A
:10066000140400485E49096821F007015C4A1160E2
:100670001146096841F0020111605A49096841F4C4
:100680008071584A116000BF5649096801F48061C1
:100690000029F9D010205349496821F0F851514AF6
:1006A00051601146496841EA00615160114609688C
:1006B00021F08071116000BF4A49096801F00071A2
:1006C000B1F1007FF8D04749C96821F00301454ADC
:1006D000D1601146C96841F00201D1601146C96874
:1006E00021F4FE4141F4A051D1601146C96821F0C6
:1006F000700141F01001D1601146C96821F0C0615C
:10070000D1601146C96841F08071D1601146096815
:1007100041F08071116000BF3249096801F0007139
:100720000029F9D02F49896821F003012D4A9160F1
:100730001146896841F00301916000BF2949896829
:1007400001F00C010C29F9D12649896821F0F0014A
:10075000244A91601146896821F4E0619160114654
:10076000896821F4605191601146096821F0806127
:10077000116000BF1B49096801F08061B1F1806F11
:10078000F8D01849096921F4FE41164A1161114651
:10079000096941F4C05111611146096941F4003100
:1007A00011611146096941F48031116111460968EE
:1007B00041F08061116000BF0A49096801F0806161
:1007C0000029F9D007498831096821F44001054A18
:1007D000C2F888101146096E41F400111166704785
:1007E00000200240001002403D48C06C40F0010073
:1007F0003B49C8640846806D40F001008865880464
:10080000006A20F00100890408624F2088620846CF
:10081000406940F00100486100BF4FF0804000692E
:1008200000F001000028F8D04FF08040006920F06F
:1008300001004FF0804108614FF0FF30C862084668
:10084000006820F0100008604FF09040006820F031
:1008500002004FF0904108600846006820F0010057
:1008600008600846006840F002000860084600681A
:1008700020F0010008600846006A40F001000862AC
:10088000C800806920F00200C900886108468069BC
:1008900040F0010088610846806920F0F00088611E
:1008A0000846006A20F0080008620846006A20F046
:1008B000020008620846C06840F00100C8600846AF
:1008C000C06840F00200C8600846006A40F00100BD
:1008D00008620846006840F00100086070470000A8
:1008E000001002401A48C06C40F008001849C86463
:1008F0001848006820F470501649086008460068DF
:1009000040F42050086013482030006840F0EE604A
:100910001049203108600F480830006840F47050DA
:100920000C4908310860081D006820F47050091D4A
:1009300008600846006840F4A05008600548001DA3
:10094000006820F060000349091D0860704700003E
:1009500000100240000C004800B50D48806D40F4C6
:1009600000300B4988650A488830006820F00C0088
:10097000C1F888000846D0F8880040F00400C1F8AB
:100980008800FFF7AFFF034800F010F800BD00003B
:100990000010024000440040642242430723B2FB9F
:1009A000F3F100BF4A1E111EFCD17047016821F00F
:1009B00001010160016821F010210160016821F44A
:1009C00000410160416821F44051416042F28D01D3
:1009D000C160016841F00C0101601E4988421BD1D1
:1009E000016841F020010160016821F040010160CF
:1009F000016821F010010160016821F080010160AF
:100A0000016821F480710160016821F040010160FA
:100A1000016821F0010101600F49884209D1016A92
:100A200041F0400101620D49096841F0C0010B4AE3
:100A30001160016841F00101016000BFC16901F46A
:100A400000110029FAD000BFC16901F4800100291A
:100A5000FAD07047004C0040004400400838014084
:100A6000014600BFC86900F020000028FAD0888C39
:100A7000C0B27047F0B504460E46174600250CE09C
:100A800000BFE06900F080000028FAD0705D20858A
:100A90004FF49670FFF780FF6D1CBD42F0D300BF8E
:100AA000E06900F040000028FAD0E06920F0400042
:100AB000E061F0BD03B401984100009850EAC12004
:100AC00018BF04204A0D18BF40F0010040F2FF7229
:100AD000B2EB515F08BF40F00200012808BF0520BB
:100AE00002B07047000000002DE9F04D2DED040B21
:100AF0002DED0E8B96B0DDE92550279CDDF890A0FA
:100B000025F0004624F00048BAF1000F14BF01217F
:100B1000002101EB4502FC4953184A1093422AD3A5
:100B2000002814BF0123002303EB44030B44F749BF
:100B30008B4220D358EA00019FEDF59B76D0DFF879
:100B4000D8B35D4503D1BAF1000F05D188E0BAF101
:100B5000000F08BF002100D0012101EB450111F574
:100B6000001F08D8002814BF0121002101EB440117
:100B700011F5001F0BD99DED261B9DED240B16B022
:100B800000F0DABD04B0BDE8F04D00F081BE0027F2
:100B9000002DBCBFE149884521DAE1498845A8BF5D
:100BA00002271CDAC3451ADCDE4901EB285114295F
:100BB00008DDC1F1340220FA02F101FA02F28242A8
:100BC0000DD108E058B9C1F1140228FA02F101FA76
:100BD00002F2424503D101F00101C1F1020756EAD8
:100BE0000A0124D1002C22DA002D18BF022F01D0D7
:100BF000012F0AD00220FFF712FC16B000F0A2BDB0
:100C000004B0BDE8F04D00F02BBE0220FFF707FC5A
:100C100000F026FE51EC100B01F0C6F941EC100B70
:100C200016B000F095BD04B0BDE8F08D18E09FED62
:100C3000BEAB9FEDBF8B002871D1B848804522D153
:100C400005F1804010F5801008BFBAF1000F07D001
:100C5000B3450ADC002CA8BF9DED260BE0DA0DE0C1
:100C6000B0EE490AF0EE690ADAE7002C06DA9DEDEB
:100C7000260B51EC100B01F097F96FE0AE48784469
:100C800090ED000BCCE7D8454DD1002C48DA2EB1C1
:100C900086423AD1BAF1000F42D126E0BAF1000FF4
:100CA00013D00220FFF7BBFB00F00EFE8DED020B10
:100CB0009DED240B8DED000B10EE900A039961F36E
:100CC0001E0003909DED020BAAE78DED02AB9DED9A
:100CD000240B1AEE901A10EE900A8DED000B61F3C2
:100CE0001E0003909DED020B9AE78DED028B9DEDAA
:100CF000240B18EE901A10EE900A8DED000B61F3A4
:100D00001E0003909DED020B8AE709DA9DED240B8E
:100D100051EC190B53EC102B01F00EFA1EE020E001
:100D20009DED240B7CE786421BDAB4F1804F0DD099
:100D3000A4F10050B0F1FF5013D1002D11DB9DED57
:100D4000240B51EC100B00F0FFFF07E09DED240B8E
:100D500053EC102B51EC100B00F0C2BC41EC100B0B
:100D60005EE79DED240B51EC100B00F0CDFDBAF1C8
:100D7000000FCDE90E0142D19FED710B46B3A6F1F4
:100D8000E040B0F17F600CD05E4538D1002D00DA34
:100D9000A7B3022F0CBF01204FF0FF3001F053FB2F
:100DA000DCE7002D01DD002C0DDA002D01DD002C2B
:100DB0001FDB002D16DA002C14DB012F08BF9FED7E
:100DC000620B3FF42DAFB0EE4A0AF0EE6A0A27E755
:100DD000022F18BF002D0CD0012F0AD1002DFFF6D5
:100DE0001FAF06E0002DB8BF002C08DA012F3FF43A
:100DF00017AFB0EE480AF0EE680A11E71BE00120D9
:100E000000EBE57050EA070115D0791EB0EE498A73
:100E1000F0EE698A084308BF9FED4D8B4E480025D0
:100E2000804570DD4D494E48884514DDB0420DDBEC
:100E3000002C19DB2FE00120FFF7F1FA16B000F0CB
:100E40008DBC04B0BDE8F04D00F02EBDB34502DC12
:100E5000002C09DC1FE0864202DA002C1BDA03E0DA
:100E60005E452BDD002C16DD0220FFF7D8FA00F0DE
:100E70002BFD8DED020B53EC1A2B51EC180B01F0EE
:100E800035FBCDE900010399019861F31E00039041
:100E90009DED020BC4E60220FFF7C1FA00F024FD2D
:100EA00010EE901A18EE900A8DED020B8DED008B6E
:100EB00061F31E0003909DED020BB1E69DED0E0B5C
:100EC00053EC192B51EC100B01F01CFD9FED260B80
:100ED000CDE9080153EC102B9DED080B51EC100BE4
:100EE00001F004FB9FED221B53EC112B01F032FCAF
:100EF0009DED081B53EC112B01F0F8FA9FED1E1B22
:100F000053EC112B3CE08CE0FFFF1F00FFFF0F00B4
:100F1000000000000000F03F0000F03F0000F07F04
:100F20000000404301FCFFFF000000000000F07FD4
:100F30000000000000000000DE1F000000000000B4
:100F40000000000000000080000000000000F0FF32
:100F5000000000000000F0BF0000E0410000F0438E
:100F6000FFFFEF3F00000000000000000000D03F46
:100F7000555555555555D53F000000000000E03F40
:100F800001F0E8FB9DED080B41EC1A0B53EC102B24
:100F900051EC100B01F0AAFA53EC1A2B01F0A6FA4F
:100FA00041EC1A0B9FEDFE0B53EC102B9DED080B43
:100FB00051EC100B01F09AFA41EC1B0B9FEDFA0B70
:100FC00051EC1A0B53EC102B01F090FA41EC1A0B78
:100FD0009FEDF70B53EC102B9DED080B51EC100B14
:100FE00001F084FA53EC1A2B01F08CFC41EC1A0B43
:100FF00051EC1B0B53EC1A2B00F0E2FF0690CDE9ED
:1010000006519DED060B53EC1B2B51EC100B01F020
:1010100079FC53EC1A2B01F09DFB41EC100B00F016
:10102000A1B90020B6F5801F0EDA9FEDE30B53EC5B
:10103000102B9DED0E0B51EC100B01F057FACDE982
:101040000E016FF034000E4600EB2650A0F2FF3781
:10105000C6F31300DA4940F07F6646F040568842F6
:10106000D8BF002408DDD7498142C8BF012403DC72
:101070000024A6F580167F1CD348784400EBC400FA
:101080000F9690ED00CB9DED0E0B53EC1C2B51EC0D
:10109000100B01F037FC9DED0E0B41EC1B0B53ECDC
:1010A0001C2B51EC100B00F08BFF41EC100B51ECA2
:1010B000190B53EC102B01F03FF841EC1D0B51ECD8
:1010C0001B0B53EC1D2B01F011FA41EC1A0BBF481E
:1010D0008DED10AB7844109590ED000B4FF0005063
:1010E00040EA660000EB84408DED080B00F500201F
:1010F00009909DED080B53EC1C2B51EC100B01F0EB
:1011000001FC9DED0E1B53EC112B01F023FB41EC78
:10111000100B53EC102B9DED100B51EC100B01F04C
:10112000E5F99DED080B41EC1C0B53EC102B9DEDEC
:10113000100B51EC100B01F0D9F953EC1B2B01F003
:1011400009FB53EC1C2B01F0DDFB53EC1D2B01F0D4
:10115000CDF941EC1C0B53EC1A2B51EC1A0B01F09E
:10116000C5F941EC1B0B9A480621B0EE4B0AF0EE94
:101170006B0A784400F0F8FAB0EE401AF0EE601A0C
:10118000B0EE41DAF0EE61DA53EC1B2B51EC1B0BA5
:1011900001F0ACF953EC1D2B01F0A8F99DED100BFB
:1011A00041EC1B0B53EC1A2B51EC100B00F008FF19
:1011B00053EC1C2B01F09AF953EC1B2B00F000FFB1
:1011C0009DED100B41EC1B0B53EC102B51EC100B55
:1011D00001F08CF941EC1D0B9FED7FEB53EC1E2BC6
:1011E00000F0EEFE53EC1B2B00F0EAFE0890CDE978
:1011F00008519DED080B53EC1E2B51EC100B01F028
:1012000081FB53EC1D2B01F07DFB53EC1B2B01F0FC
:10121000A1FA9DED080B41EC1D0B53EC102B9DED3D
:10122000100B51EC100B01F061F941EC1B0B53EC6E
:101230001A2B51EC1D0B01F059F99DED080B41ECF7
:101240001A0B53EC102B51EC1C0B01F04FF953EC23
:101250001A2B00F0B5FE41EC1A0B51EC1B0B53ECB2
:101260001A2B00F0ADFE0C90CDE90C519DED0C0B4E
:1012700053EC1B2B51EC100B01F044FB53EC1A2BDD
:1012800001F068FA41EC1B0B9FED550B53EC102B52
:101290009DED0C0B51EC100B01F028F941EC1A0BF1
:1012A0009FED510B51EC1B0B53EC102B01F01EF971
:1012B00041EC1B0B9FED4E0B53EC102B9DED0C0BDB
:1012C00051EC100B01F012F953EC1B2B00F078FEDF
:1012D00041EC100B4848784400EBC40090ED001B33
:1012E00051EC100B53EC112B00F06AFE41EC1B0B80
:1012F000384601F0A8F8CDE9080153EC1B2B51EC5E
:101300001A0B00F05DFE41EC100B3C48784400EBFA
:10131000C40090ED00CB51EC100B53EC1C2B00F0F3
:101320004FFE9DED081B53EC112B00F049FE06907B
:10133000CDE906519DED080B53EC102B9DED060BEE
:1013400051EC100B01F0DEFA53EC1C2B01F0DAFA31
:1013500053EC1A2B01F0D6FA53EC1B2B01F0FAF9DF
:1013600041EC100B9DED261B53EC102B8DED001B5B
:1013700000959DED260B51EC100B01F0B7F89DED9B
:10138000000B41EC1A0B53EC102B9DED260B51EC8E
:10139000100B01F0B7FA9DED061B53EC112B2FE05B
:1013A000000000604715F73FFE822B654715F73FA9
:1013B00044DF5DF80BAE543E0000000000004043E7
:1013C0008E9803007AB60B005A1B0000881B0000A1
:1013D000921A000000000000000000000000084019
:1013E000000000E009C7EE3FFD033ADC09C7EE3F0D
:1013F000F5015B14E02F3EBE1E190000D818000056
:1014000001F074F853EC1A2B00F0DAFD9DED060B99
:1014100041EC1A0B53EC102B9DED000B51EC100B13
:1014200001F064F8CDE90C019DED0C0B51EC1A0BA9
:1014300053EC102B00F0C4FDCDE902010C46AA4983
:101440008C422FDB611A084318D19DED0C0B53EC35
:10145000102B9DED020B51EC100B01F053FA41ECF7
:101460001B0B9FEDA30B51EC1A0B53EC102B00F050
:10147000A7FD53EC1B2B01F037F92DD20220FEF70C
:10148000CEFF00F021FA10EE901A18EE900A8DEDC2
:10149000020B8DED008B61F31E0003909DED020B9E
:1014A000FFF7BEBB944A24F00041914214D3934904
:1014B000214408437FF4EFAC9DED0C0B53EC102B53
:1014C0009DED020B51EC100B01F01CFA53EC1A2BA2
:1014D00001F00AF97FF6DFAC24F000408849894A20
:1014E000002601EB205182422BDA481C4FF4801178
:1014F00021FA00F02044844AC0F30A517A44A1F250
:10150000FF3192ED000B814A8DED080BCA4020EAB5
:101510000202C0F3130040F48010C1F1140120FA5C
:1015200001F60992002CB8BF76429DED080B53ECF2
:10153000102B9DED0C0B51EC100B01F0E3F9CDE9F4
:101540000C019DED0C0B51EC1A0B53EC102B00F021
:1015500037FD9FED6F0B0890CDE9085153EC102B30
:101560009DED080B51EC100B00F0C0FF41EC1B0B84
:101570009FED690B53EC102B9DED080B51EC100BFC
:1015800000F0B4FF9DED0C0B41EC1C0B53EC102B49
:101590009DED080B51EC100B01F0B4F953EC1A2B34
:1015A00001F0D8F89FED5E1B53EC112B00F09EFF6D
:1015B00053EC1C2B00F004FD41EC1A0B51EC1B0BFF
:1015C00053EC1A2B00F0FCFCCDE902019DED020B5F
:1015D00053EC1B2B51EC100B01F094F953EC1A2B2C
:1015E00001F0B8F89DED020B41EC1A0B53EC102BF7
:1015F00051EC100B00F07AFFCDE908014A489DED4F
:10160000080B0521784400F0AFF89DED081B51EC64
:10161000100B53EC112B00F069FF9DED021B53ECF6
:10162000112B01F097F8CDE906019DED020B53EC6B
:101630001A2B51EC100B00F059FF53EC1A2B00F051
:10164000BFFC9FED3B0B41EC1A0B53EC102B9DEDB7
:10165000060B51EC100B01F055F99DED060B41EC1A
:101660001B0B53EC102B9DED020B51EC100B00F0FB
:101670003DFF53EC1B2B00F05FFD53EC1A2B01F0E8
:1016800041F99DED021B53EC112B01F03BF953EC9A
:10169000192B01F05FF8CDE9020101EB06500115AD
:1016A0000029C8BF039015DC9DED020B324651ECBA
:1016B000100B01F048FAFFF7FDF9042808BF00F00D
:1016C00013F932469DED020B51EC100B01F03BFA81
:1016D000CDE902019DED020B51EC180B53EC102BE0
:1016E00000F004FFFFF73ABB00009040000000004C
:1016F000FE822B654715973C00CC904000346F3F2D
:1017000001FCFFFF0000E03F60170000FFFF0F003B
:1017100000000000432EE63F396CA80C615C20BE3F
:10172000EF39FAFE422EE63F3016000000000000BE
:101730000000000000000040BDEC088BBDEC06CBB3
:10174000FFF720BABDEC088BBDEC06CBFFF758BA0B
:10175000BDEC088BBDEC06CBFFF765BABDEC088B82
:10176000BDEC06CBFFF76DBB70B504462DED028BCB
:101770004D1E00EBC500B0EE408AF0EE608A90EDA1
:10178000000B35F0060017D053EC182B51EC100B62
:1017900000F0ACFE41EC100B6D1E04EBC50090EDAB
:1017A000001B51EC100B53EC112B00F009FC41EC29
:1017B000100B35F00600E7D1022D36D0042D1CD0D9
:1017C000062D1CBFBDEC028B70BD53EC182B51ECE9
:1017D000100B00F08BFE94ED0A1B53EC112B00F064
:1017E000EFFB53EC182B00F081FE94ED081B53EC3B
:1017F000112B00F0E5FB41EC100B53EC182B51ECD6
:10180000100B00F073FE94ED061B53EC112B00F04F
:10181000D7FB53EC182B00F069FE94ED040B53EC4E
:10182000102B00F0CDFB41EC100B53EC182B51ECBE
:10183000100B00F05BFE94ED021B53EC112B00F03B
:10184000BFFB53EC182B00F051FE94ED001B53EC42
:10185000112B00F0B5FBBDEC028B41EC100B70BD01
:101860009FED070B10B553EC102B9FED070B51ECC0
:10187000100B00F061FC41EC100B10BD00000000EB
:101880000000000000000000000000000000F03F29
:1018900010B553EC112B51EC100B00F091FB41EC07
:1018A000100B10BD000000009FED050B10B553ECB0
:1018B000102B51EC100B00F03FFC41EC100B10BD55
:1018C00000000000000000009FED050B10B553EC78
:1018D000102B51EC100B00F009FE41EC100B10BD69
:1018E00000000000000000709FED050B10B553ECE8
:1018F000102B51EC100B00F0F9FD41EC100B10BD5A
:10190000000000000000001082B0CDE9000121F0CD
:10191000004001909DED000B02B051EC100B7047A0
:1019200010B5FEF79FFEFEF749FEFEF733FEFEF709
:1019300085FEFFF711F8FEF757FF9E499E48FEF718
:10194000B9FC9E490870084602789B499C48FFF7FD
:1019500091F8002000E0401C9A498842FBDB24E11A
:101960009948008801286FD18007006900F00200C3
:1019700028B396480068B0F57A7F20DC4FF08041AC
:10198000096941F002014FF0804211611146496A34
:10199000002151621146888E8C490968491C8B4A86
:1019A00011608B490988411A88B2642806DC89498C
:1019B00051F82010491C874A42F8201000BF834884
:1019C0000068B0F57A7FCAD14FF08040006940F0DE
:1019D00002004FF0804108610846406A00204862DA
:1019E0007D497548FEF766FC744908700846027820
:1019F00071497348FFF73EF8002422E0754850F81B
:101A00002400E8B172480088221874A16A48FEF7E1
:101A100051FC6A4908706F4951F824206649674BA8
:101A20001B78C8186EA1FEF745FC64490978084484
:101A300062490870084602785F496148FFF71AF862
:101A4000641C642CDADD00E010E067A15A48FEF760
:101A500031FC5A4908700846027857495848FFF740
:101A600009F8FEF7F5FD00F0A7F99EE0564800885A
:101A70000028FAD14FF08040006900F00200F8B170
:101A8000634800680A281BDA4FF08041096941F079
:101A900002014FF0804211611146496A00215162F2
:101AA0001146486B5A490968491C594A11605949FD
:101AB000884204D845490968491C444A116074E0C9
:101AC000534800680A283ED1514800683F490968D8
:101AD000401A022837DC6FF001003C490860012001
:101AE0003949088000204A490860FEF75DFD4A49EF
:101AF0003148FEF7DFFB31490870084602782E496D
:101B00002F48FEF7B7FF3248028844A12A48FEF763
:101B1000D1FB2A4908702849284A127888182C498C
:101B20000A88643242A1FEF7C5FB244909780844BB
:101B300022490870084602781F492148FEF79AFF9B
:101B400000F03AF931E0324800680A282DD13048D7
:101B500000681E490968401A022826DDFEF778FD54
:101B600038491548FEF7A6FB144908700846027864
:101B700011491348FEF77EFF00F06EF8012807D1E7
:101B800000201149088011490860214908600CE0D3
:101B90002DA10948FEF78EFB084908700846027817
:101BA00005490748FEF766FF00E0D9E600BF0020C0
:101BB00010BD00005C2D0008A801002011000020CD
:101BC0000044004000127A000000002004000020C1
:101BD0000800002014000020F02C000825640900F3
:101BE00025640D0A000000002A2A2A2A2A2A2A2A05
:101BF0002A2A2A2A2A2A2A2A2A2A2A2A2A2A2A2A45
:101C00002A2A2A2A2A2A2A2A2A2A0D0A0000000019
:101C10000C000020A0860100B82D00080D0A4C6FB2
:101C2000776572204C696D6974203D202564090038
:101C30005570706572204C696D6974203D20256473
:101C40000D0A0000682C00080D0A5448414E4B2034
:101C5000594F55210D0A0000F0B52DED0C8B8BB0BE
:101C6000002700245AE02F48FEF7FAFE01A941F8A8
:101C7000240001A850F824000D283DD10026651E3F
:101C80002FE0284600F0DFFB41EC1D0BB0EE4D1AB3
:101C9000F0EE6D1A9FED240BFEF726FFB0EE40BA72
:101CA000F0EE60BA01A951F82610A1F1300000F061
:101CB000CAFB41EC1C0B53EC1B2B00F017FC41EC56
:101CC000190B384600F0BFFB41EC1A0B53EC192BF3
:101CD00000F076F941EC180B00F086FB0746761C05
:101CE0006D1E002DCDDA282101A8FEF769FB3846CC
:101CF0000BB000F023B8F0BD01A850F82400A0F10B
:101D000030020BA10B48FEF7D5FA0B4908700846C4
:101D1000027808490348FEF7ADFE641C0A2CA2DDD8
:101D20000220E5E7004400400000000000002440DD
:101D300025640000A801002011000020BDEC088BE4
:101D4000BDEC04CBFFF7D7BF00B52DED048B83B0FE
:101D500041EC190B00F00AFD41EC180B18EE100ACB
:101D600018EE901A8DED008B002818BF0120084353
:101D700020F00040C0F17F6000F1E040C00F14D0BF
:101D800019EE101A19EE900A8DED009B002918BF6C
:101D90000121084320F00040C0F17F6000F1E040E5
:101DA000C00F04BF0120FEF73AFB51EC180B03B043
:101DB000BDEC048B00BD000010B548494848FEF753
:101DC00079FA484908700846027845494648FEF7BE
:101DD00051FEFFF741FF0446012C3DD1C01E43498F
:101DE00008604FF4CA714248FEF7EAFA41A13C4844
:101DF000FEF760FA3B4908700846027838493A48CD
:101E0000FEF738FEFFF728FF4149088008460288A0
:101E100040A13348FEF74EFA324908703049314A42
:101E2000127888183A490A8864323FA1FEF742FACC
:101E30002C49097808442B4908700846027828493B
:101E40002948FEF717FE05E02748FEF709FE0D2892
:101E500000D100E0F8E740E0002C2DD1A01E23497E
:101E600008604FF4CA712248FEF7AAFA284802888F
:101E700038A11B48FEF71EFA1A4908701849194A7A
:101E80001278881822490A88643237A1FEF712FABC
:101E90001449097808441349087008460278104923
:101EA0001148FEF7E7FD05E00F48FEF7D9FD0D28C4
:101EB00000D100E0F8E710E0022C0EDB35A1084865
:101EC000FEF7F8F907490870084602780449064801
:101ED000FEF7D0FD02203349088010BD142E000803
:101EE000A801002011000020004400400400002050
:101EF000140000200D0A456E746572207468652018
:101F00004C6F776572204C696D69743A0D0A000058
:101F1000080000200A0D4C6F776572204C696D69CE
:101F200074203D20256409005570706572204C694D
:101F30006D6974203D2025640D0A0A507265737323
:101F400020456E74657220746F20436F6E74696EE5
:101F5000756500000D0A4C6F776572204C696D69DC
:101F600074203D20256409005570706572204C690D
:101F70006D6974203D2025640D0A507265737320CD
:101F8000456E74657220746F20436F6E74696E7550
:101F9000650000000D0A5448414E4B20594F552111
:101FA0000D0A00000000002081F00041704780F021
:101FB0000040704721F00041704720F0004070471A
:101FC00010B591EA030F48BF83F0004300F1A284EB
:101FD000841A71EB030C05D2121943EB0C03001B9E
:101FE00061EB0C01DFF824E14FEA1154A4EB135C20
:101FF0001EEA430F18BF9EEA445F73D023EA0E0324
:10200000DCF1200E21EA045143F4801332D322FA8A
:102010000CFE10EB0E0023FA0CFE41EB0E01CCF18E
:10202000200E03FA0EFE10EB0E0051F10001B1F587
:10203000801FCCF1200E32D201EB045112FA0EF2C5
:10204000BDE8104058BF7047401C38BF5FEA4202ED
:1020500018BF7047002814BF20F0010041F10001B3
:102060004FEA410313F5001F38BF7047A1F1C0418B
:1020700000F034BB012A43EB0302ACF1200CDCF18D
:102080001F0E32BF4FF0000E23FA0CF310EB0300CB
:1020900041EB0451B4EB115FD0D0A1EB045101F539
:1020A000801149085FEA300001EB04510ED350F172
:1020B000000038BF12FA0EFE08D1BDE81040C9E793
:1020C000401C38BF5FEA4202CAD1C3E7BDE81040F6
:1020D0004FEA410313F5001F38BF7047A1F1C0411B
:1020E00000F0FCBA9EEA445F08D011EA5E0FBDE83A
:1020F000104004BF01F0004100207047BDE81040CF
:1021000070B500F09DFA00BF64FBBE3E0000E0FF2A
:1021100002494FF0000000F0E4BC00BF0000F87F6F
:10212000491058BFC1F140415B1058BFC3F1404353
:102130008B42EFF3008070472DE9C04130B4DFF8E7
:10214000A0C23CEA111418BF3CEA131400F0EC8062
:1021500081EA03051CEA111444EAD57418BF1CEA8D
:10216000131500F0C780A4EB05044FF0004545EAC5
:10217000C12145EAC32341EA505143EA525304F1D5
:102180007F74994204F500344FEAC0204FEAC2221E
:1021900008BF904200F09C804FEA13650FF2401692
:1021A000765D4FEA134506FB05F7C7F1807706FB1E
:1021B00007F74FEAD737A7FB03687642C8F58038A0
:1021C000A7FB06CE38BFA8F1010807FB08E64FF0D1
:1021D000000EA6FB028CE6FB03CEDCF1000CCEF178
:1021E000004E38BFAEF1010EA6FB0C584FF00007B1
:1021F0004FF00005E6FB0E87A1FB08C6A0FB07CE4B
:1022000016EB0E0645F10005E1FB076515F1E04E02
:102210007EBFA4F580345FEA46066D4116F1800763
:1022200045F100054FEA17274FEA066647EA0567BA
:10223000A6F1DE46B6F1805F4FEA15251FD9384674
:1022400024F0010C05EBC471BCF1FE6F01EB0C1125
:1022500002D8F0BCBDE8008124425CBF01F5801EBD
:102260009EEAC47F02D4F0BCBDE80081244238D489
:10227000F0BCA1F1C041BDE8004100F02FBA4FEA27
:10228000D22242EA43524FEAD323A7FB02864FEA07
:10229000D02040EA415007FB03661EEA0E0F4FEACA
:1022A000D12105FB026658BFA6EB0056B6EB0056DF
:1022B0004FEA520E4EEAC37E18EB0E0E56EB530E4B
:1022C000BDD518EB02085E417F1C55F10005B6E74D
:1022D0004FF480154FF000074FF000064FF0000854
:1022E000ADE7F0BC4FF0000001F1C04101F000414A
:1022F000BDE8008111EA0C1F0CEA131500D00CE0B8
:1023000013EA0C1F00F025804FF00000F0BC81EABA
:10231000030101F00041BDE80081F0BCBDE80041CF
:1023200081EA030100F0DAB9F0BCBDE8004170B504
:1023300000F086F9097EFC3E00F007B881EA03014F
:102340004FF0000001F00041704781EA030100F006
:10235000C5B9F0BCBDE800414FF00000214970470D
:10236000FFFDFBF9F7F5F4F2F0EEEDEBE9E8E6E45A
:10237000E3E1E0DEDDDBDAD8D7D5D4D3D1D0CFCDE1
:10238000CCCBCAC8C7C6C5C4C2C1C0BFBEBDBCBB1A
:10239000BAB9B8B7B6B5B4B3B2B1B0AFAEADACAB15
:1023A000AAA9A8A8A7A6A5A4A3A3A2A1A09F9F9EEF
:1023B0009D9C9C9B9A9999989797969595949393A1
:1023C000929191908F8F8E8E8D8C8C8B8B8A898938
:1023D00088888787868585848483838282818180BB
:1023E0000000FF070000F87F4FEA41034FEA535314
:1023F000A3F58063D3F11E03C8BFD3F1210C0CDD1C
:102400004FF0004242EAC12242EA505232FA03FC43
:102410008CEAE17CACEBE1707047102BC4BF00206C
:10242000704703F5787CBCF1FF3F04D06FF00042A9
:1024300082EA2100704770B500F002F949922480C9
:1024400000207047F2E710F0004248BF4042B0FA67
:1024500080F310FA03F10AD0C3F11D0303F5806382
:102460004FEA415002EB035202EBD12170474FF08B
:102470000000704751EA030C17D41CF5801F58BFA9
:10248000BCF5801F00F10680994218BF704708BF55
:102490009042704707D711F5801F58BF13F5801F72
:1024A00019D499427047894270471CF5801F08D59E
:1024B000BCF5801FF7D58B4218BF704708BF82421A
:1024C00070474FF4001C1CEB410F38BF1CEB430F4F
:1024D00001D28B42704770B500F0B2F892244900E7
:1024E0004FF000514FF08053FFF71ABEDFF848C19C
:1024F00070B51CEA111E1EBF1CEA13159EEA0C0FD4
:1025000095EA0C0F00F06F8081EA030423EA4C1374
:102510004EEAD47E21EA4C1141F4801143F4801339
:10252000AE44A1FB024CA0FB0365AEF17F7E3619E1
:1025300055EB0C05A1FB034C4CF10003A0FB021C66
:1025400016EB0C06654153F10003094218BF46F033
:10255000010613F4007F0BD14FEA03314FEA053037
:10256000340341EA155140EA16506FF003020AE0C5
:102570004FEAC3214FEAC520F40241EA555140EA2F
:1025800056506FF0020202EB2E4201EB025585EA33
:10259000CE710AD05FEA440C18BF24F0004450F119
:1025A000000041F1000120EAD47040F2FE7C624557
:1025B00000D270BDA84214BF4FF080444FF0404499
:1025C000002E08BF0024BEF1806FA8BFA1F1C0415A
:1025D000BDE8704080F282804FF0000001F1C04100
:1025E00001F0004170479EEA0C0F0CEA131518BF6A
:1025F00095EA0C0F06D04FF0000081EA030E0EF0B2
:10260000004170BD00F01CF88900013E00F007B8E1
:1026100000F009B84FEA430C5FEA5C5C08D081EA3D
:10262000030100F05BB84FEA410C5FEA5C5CF6D155
:102630004FF00000014970470000FF070000F87FDD
:102640000EF1020E2EF0030E5EF8046B364205D436
:10265000012A43EB030515F5001F12D8012841EBB1
:10266000010C1CF5001F0CD80ED14FEAD17C15F5DA
:10267000001F0CEB4C0C0CF1020C08BF4CEBD37C94
:1026800004E04FF0080C01E04FEAD37C0CEB4C0562
:1026900026FA05F606F00706B6F1040C06D20EEB94
:1026A000860CBDE870404CF0010C6047DFE80CF090
:1026B000090B02024FF000414FF00000A1F500218C
:1026C00070BD19461046012851EB010418BFD4F51E
:1026D000001484BF002001F0004170BD0808A0F57F
:1026E00000114FEA3101704753EA010C17D41CF571
:1026F000801F58BFBCF5801F00F106808B4218BFB9
:10270000704708BF8242704707D713F5801F58BF34
:1027100011F5801F19D48B4270479B4270471CF5FE
:10272000801F08D5BCF5801FF7D5994218BF7047A8
:1027300008BF904270474FF4001C1CEB430F38BF9A
:102740001CEB410F01D2994270470FB40CBC03BC83
:10275000FFF7C1BE91EA030F10B581F000413FF5CC
:1027600037AC83F0004300F0D5B800002DE9F0410C
:1027700001F5801CBCF5001FC0F2A9804FEA115C76
:1027800021EA0C510CF1FD0C41F480115FEA5C0C64
:102790000CF5C07C01D34000494130A4890241EAD4
:1027A000905187028E0E0A0CA45D04FB04F602FB16
:1027B00006F6C6F14046A4FB0662F60D46EA42263E
:1027C00006FB06F4A4FB01235242C3F1404338BF89
:1027D0005B1EA6FB02420024E6FB0324D20B42EA66
:1027E0004446A6FB0623A1FB02E2A3FB07E4E3FBAE
:1027F00061426442C2F1404E38BFAEF1010EA6FB09
:1028000004234FF00002E6FB0E32A2FB0346340025
:10281000E2FB6264A1FB06E6A4FB07E8E4FB616857
:102820007642C8F1405838BFA8F10108A2FB06E47F
:10283000A3FB08E5E2FB6854A1FB05E6A7FB04E85F
:10284000E1FB648618F1200556F10006A809A8F1FD
:102850001B08B10908F03F08B8F10A0F40EA86608A
:102860001CD901EB0C51BDE8F08100BFFCF5EEE88E
:10287000E2DDD8D3CFCBC7C3C0BDB9B6B4B1AEAC1F
:10288000A9A7A5A3A19F9D9B9A9896959392908F97
:102890008D8C8B898887868584838281A0FB0068E4
:1028A00000FB01F208EB4208B8EB872807D5341883
:1028B00058EB0104D5D5401C51F10001D1E7341A81
:1028C00078EB0104CDD4401E71F10001C9E75FEA45
:1028D0004C0C5FEA9C5C0DD105D34FF0000001F079
:1028E0000041BDE8F081BDE8F04170B5FFF7A8FEFA
:1028F0006DDBFFBEBDE8F0414FF0000000497047BE
:102900000000F87F10B591EA030F48BF83F0004341
:102910003FF55EAB841A71EB030C07D212198CF0F1
:10292000004C43EB0C03001B61EB0C01DFF8A4E14E
:102930004FEA1154A4EB135C1EEA430F18BF9EEA42
:10294000445F00F0B08023EA6E03524221EA045152
:10295000C3EB6E0338BF5B1EDCF1200E25D322FAD9
:102960000CFE10EB0E0043FA0CFE41EB0E01CCF115
:10297000200E03FA0EFE10EB0E0051F10001CCF117
:10298000200E29D412FA0EF201EB0451BDE81040DA
:1029900058BF7047401C1CBFB2F1004F7047002861
:1029A0000CBF491C20F00100704712EB020E43EBF4
:1029B000030218BF4FF0010E4EEA4202ACF1200CA8
:1029C000DCF11E0E54D943FA0CFE10EB0E0051F14F
:1029D000FF31CCF11E0ED5D50EF1010E12FA0EFE0E
:1029E000404141EB010101EB445C5FEA5C5C10D9C2
:1029F00010EBDE7001EB045138BFBEF1004FBDE8B3
:102A0000104018BF704700280CBF491C20F001007F
:102A1000704730D24FEAD42C11F5001124F4006431
:102A20001BD0B1FA81F20B3AA41AA41ED2F12003F2
:102A3000914030FA03F31943904001EBCC71002C24
:102A400001EB0451BDE81040A8BF704701F1C0413F
:102A50004FF0000001F000417047B0FA80F310FA27
:102A600003F100D110BDE41A173C4805C90AE4E798
:102A700001EB045110BD491001EB0451BDE81040B9
:102A80004FEA300002E04FF0000170474A0008BFF3
:102A90000042F8D0B2F5001F28BF704701F0004196
:102AA0004FF0000070479EEA445F07D011EA5E0FC6
:102AB000BDE8104004BF002100207047BDE8104071
:102AC00070B5FFF7BDFD00BF40DFF63E83F000416B
:102AD000104670470000E0FF4FF04070E1EE100A32
:102AE00070470CF00F03092B08BF082000F0598035
:102AF0000A2B0BD0082B18BF704708BF1CF0400FE3
:102B00000AD04FF000004FF0000170471CF0400F5A
:102B100018BF4FF0004070471CF0100F08D020F095
:102B2000704300F07F4242EAD3014FEA437070479E
:102B300000F0604021F07F4242EA000201F07F4055
:102B400040EA727070474FF0FF0C4CF4E06C1CEAE6
:102B500011531CBF9CEA030C9445C2BFDA4201EB3F
:102B600002517047002B0DD0BCF1000F0FD0002A8E
:102B700001F00041A4BF41F0E04141F07F614FF01E
:102B80000000704701F000414FF00000704750EA2C
:102B900001334FF09B0C18BF4CF0806C7FF4B8AA47
:102BA00070471CF4801F11D01CF4E02F03D06FEA93
:102BB000CC31490070474FF04050EFF3008222F0D3
:102BC000704242EA000282F3008870474FF0000032
:102BD0007047000000000000000000000000F03F0F
:102BE000000000000000F83F0000000000000000AE
:102BF0000000004003B8E23F0000000000000000B9
:102C000006D0CF43EBFD4C3E033333333333E33F46
:102C1000FFAB6FDBB66DDB3F4D268F515555D53F72
:102C200001411DA96074D13F65DBC9934A86CD3F40
:102C3000EF4E454A287ECA3F3E5555555555C53F2E
:102C400093BDBE166CC166BF2CDE25AF6A56113F20
:102C5000F16BD2C541BDBBBED0A4BE726937663E22
:102C600000000000000000002A2A2A2A2A2A2A2A14
:102C70002A2A2A2A2A2A2A2A2A2A2A2A2A2A2A2AB4
:102C80002A2A2A2A2A2A2A2A2A2A0D0A09504F538E
:102C900054204661696C65640D0A2A2A2A2A2A2A68
:102CA0002A2A2A2A2A2A2A2A2A2A2A2A2A2A2A2A84
:102CB0002A2A2A2A2A2A2A2A2A2A2A2A0D0A0D0AEE
:102CC0000D0A446F20796F752077616E7420746FE0
:102CD0002074727920616761696E3F20285965739D
:102CE000203D20313B204E6F203D2030290D0A0031
:102CF0000D0A0A2A2A2A2A2A2A2A2A2A2A2A2A2A91
:102D00002A2A2A2A2A2A2A2A2A2A2A2A2A2A2A2A23
:102D10002A2A2A2A2A0D0A202050756C736520570A
:102D20006964746820537072656164205461626CD8
:102D3000653A0D0A2A2A2A2A2A2A2A2A2A2A2A2AE5
:102D40002A2A2A2A2A2A2A2A2A2A2A2A2A2A2A2AE3
:102D50002A2A2A2A2A2A0D0A000000002A2A2A2AB8
:102D60002A2A2A2A2A2A2A2A2A2A2A2A2A2A2A2AC3
:102D70002A2A2A2A2A2A2A2A2A2A2A2A2A2A0D0AF0
:102D8000095374617274696E6720504F53540D0A71
:102D90002A2A2A2A2A2A2A2A2A2A2A2A2A2A2A2A93
:102DA0002A2A2A2A2A2A2A2A2A2A2A2A2A2A2A2A83
:102DB0002A2A0D0A000000002A2A2A2A2A2A2A2A58
:102DC0002A2A2A2A2A2A2A2A2A2A2A2A2A2A2A2A63
:102DD0002A2A2A2A2A2A2A2A2A2A0D0A09504F533D
:102DE00054205375636365737366756C0D0A2A2AE4
:102DF0002A2A2A2A2A2A2A2A2A2A2A2A2A2A2A2A33
:102E00002A2A2A2A2A2A2A2A2A2A2A2A2A2A2A2A22
:102E10000D0A00000D0A446F20796F752077616EEE
:102E20007420746F2072756E3A200D0A30202D20A8
:102E30005965732C2053616D652053706563696615
:102E400069636174696F6E73206173207072657657
:102E5000696F7573200D0A31202D205965732C2060
:102E6000446966666572656E742053706563696651
:102E700069636174696F6E200D0A32202D204E6FD8
:102E80000D0A0000A42E000800000020140000001D
:102E9000C4010008B82E0008140000201408000027
:102EA000E00100080000000000000000B603000080
:082EB00000000000000000001A
:040000050800018965
:00000001FF
